:1000000019C028C027C026C025C024C023C022C0D4
:1000100021C020C01FC01EC01DC01CC05DC11AC0B1
:1000200019C018C017C016C015C014C013C012C024
:10003000CBC010C011241FBECFEFD4E0DEBFCDBFB8
:1000400021E0A0E0B1E001C01D92A830B207E1F7C5
:100050001DD05FC1D5CFCF93DF93CDB7DEB786E498
:1000600090E0FC01108285E490E024E0FC01208314
:1000700087E490E025E7FC0120838EE690E022E013
:10008000FC0120830000DF91CF910895CF93DF938F
:10009000CDB7DEB784E290E0FC01108285E290E00B
:1000A00027E0FC0120838AE290E023E0FC0120832A
:1000B00087E290E02FE0FC0120838AEB90E02EE2C3
:1000C000FC0120838CEB90E0FC0120818CEB90E024
:1000D0002564FC012083789483E290E0FC01808118
:1000E000882F90E0877099279093010180930001F9
:1000F0002091020130910301809100019091010152
:100100002817390779F085E490E0FC018081882385
:1001100049F4809100019091010190930301809333
:10012000020199DF209104013091050180910601BF
:10013000909107012817390779F280910401909175
:100140000501282F88E290E02F70FC012083809128
:1001500004019091050195958795959587959595BD
:10016000879595958795282F8BE290E02370FC0169
:100170002083809104019091050190930701809361
:100180000601AACFCF93DF93CDB7DEB7209102014E
:10019000309103018BEB90E0FC0120838CEB90E02D
:1001A000FC0120818CEB90E02F7BFC0120838CEB09
:1001B00090E0FC0120818CEB90E02468FC0120831E
:1001C0000000DF91CF9108951F920F920FB60F920A
:1001D00011242F933F934F935F936F937F938F934C
:1001E0009F93AF93BF93EF93FF93CF93DF93CDB7DD
:1001F000DEB789EB90E0FC018081882F90E0887F5A
:1002000099278036910551F48CEB90E0FC01208118
:100210008CEB90E0246CFC0120834AC089EB90E0D9
:10022000FC018081882F90E0887F99278038910594
:10023000A1F48BEB90E0FC018081882F90E09093FB
:100240000501809304018CEB90E0FC0120818CEB94
:1002500090E0246CFC0120832BC089EB90E0FC0132
:100260008081882F90E0887F9927883A910511F442
:1002700089DF1EC089EB90E0FC018081882F90E02F
:10028000807F9927803C910551F48CEB90E0FC0134
:1002900020818CEB90E0246CFC01208309C08CEB66
:1002A00090E0FC0120818CEB90E0246CFC01208329
:1002B0000000DF91CF91FF91EF91BF91AF919F919E
:1002C0008F917F916F915F914F913F912F910F90FF
:1002D0000FBE0F901F9018951F920F920FB60F929E
:1002E00011248F939F93EF93FF93CF93DF93CDB719
:1002F000DEB785E490E0FC0110820000DF91CF9131
:10030000FF91EF919F918F910F900FBE0F901F90D3
:060310001895F894FFCFE0
:00000001FF
